:020000040000FA
:100000007010002065010000690100006B01000014
:1000100000000000000000000000000000000000E0
:100020000000000000000000000000006D01000062
:1000300000000000000000006F01000071010000DE
:1000400073010000730100007301000073010000E0
:100050007301000000000000730100007301000044
:1000600073010000730100007301000073010000C0
:1000700073010000730100007301000073010000B0
:1000800073010000730100007301000073010000A0
:100090007301000073010000730100007301000090
:1000A0007301000073010000000000000000000068
:1000B0000000000000000000000000000000000040
:1000C00000F002F800F03EF80CA030C80838241800
:1000D0002D18A246671EAB4654465D46AC4201D180
:1000E00000F030F87E460F3E0FCCB6460126334274
:1000F00000D0FB1AA246AB4633431847580600000F
:1001000078060000103A02D378C878C1FAD85207AE
:1001100001D330C830C101D504680C6070470000BD
:100120000023002400250026103A01D378C1FBD813
:10013000520700D330C100D50B6070471FB51FBDFB
:1001400010B510BD00F0D6F81146FFF7F7FF00F02C
:100150001FFA00F0EEF803B4FFF7F2FF03BC00F063
:10016000F3F8000006480047FEE7FEE7FEE7FEE77B
:10017000FEE7FEE703480449044A054B70470000C8
:10018000C1000000700000207010002070080020E6
:1001900070080020002203098B422CD3030A8B42F3
:1001A00011D300239C464EE003460B433CD400226F
:1001B00043088B4231D303098B421CD3030A8B4281
:1001C00001D394463FE0C3098B4201D3CB01C01A4F
:1001D000524183098B4201D38B01C01A524143091A
:1001E0008B4201D34B01C01A524103098B4201D308
:1001F0000B01C01A5241C3088B4201D3CB00C01A75
:10020000524183088B4201D38B00C01A52414308EC
:100210008B4201D34B00C01A5241411A00D2014611
:100220005241104670475DE0CA0F00D049420310AA
:1002300000D34042534000229C4603098B422DD3F9
:10024000030A8B4212D3FC22890112BA030A8B42A1
:100250000CD3890192118B4208D3890192118B42F0
:1002600004D389013AD0921100E08909C3098B4275
:1002700001D3CB01C01A524183098B4201D38B01B8
:10028000C01A524143098B4201D34B01C01A52415B
:1002900003098B4201D30B01C01A5241C3088B42A0
:1002A00001D3CB00C01A524183088B4201D38B008B
:1002B000C01A5241D9D243088B4201D34B00C01A15
:1002C0005241411A00D20146634652415B1010462A
:1002D00001D34042002B00D54942704763465B1072
:1002E00000D3404201B50020C046C04602BD704761
:1002F00070477047754600F023F8AE460500694622
:100300005346C008C000854618B020B5FFF732FF3D
:1003100060BC00274908B6460026C0C5C0C5C0C598
:10032000C0C5C0C5C0C5C0C5C0C5403D49008D469B
:1003300070470446C046C0462046FFF70CFF000049
:10034000004870470C00002001491820ABBEFEE7B2
:100350002600020070470000072909DC082202433A
:1003600001238B401B021A43024B5A6001221A6080
:1003700070470000007500400121074A116000BF6E
:10038000064909680029FBD00021044A116004498C
:10039000896888B27047000000700040007100401A
:1003A0000075004070B504460025002608E0FFF700
:1003B000E3FF401985B2C82000F02AF9701CC6B2CC
:1003C000A642F4DB21462846FFF7EEFE80B270BD60
:1003D00010B5122000F040F9174818494860002075
:1003E0001749086001201749086000BF14480068D9
:1003F0000028FBD000201249C86001201149886004
:1004000006E01220012181400F4A916000BF00BF29
:100410000B48C0680028F4D0122000F01DF900201D
:100420000749086101200749086100BF04480069C5
:100430000028FBD010BD0000000000200015004087
:10044000001100400010004000050050F0B50C1AEB
:10045000641CE3B210E0940001256D022C430325D7
:100460002D0465190524240707263602A61904461B
:10047000471CF8B2A40035511C465D1EEBB2002C9F
:10048000E9D1F0BD70B50B1A5B1CDAB20BE0FF25A9
:10049000043505231B07072424021E190346441CA8
:1004A000E0B29B00F5501346541EE2B2002BEED191
:1004B00070BD00002548008CC0B201283AD1234805
:1004C000808C0007000F002834D12048806AF0217A
:1004D000084000280BD11D48C06A0840002806D1FA
:1004E0001B481C494860C8131B49886122E0174813
:1004F000806AF021084010280BD11448C06A0840D7
:10050000002806D1124813494860C813124988616F
:1005100010E00E48806AF021084030280AD10B48CC
:10052000C06A0840002805D109480A494860C81334
:100530000949886100200949086001208107086095
:1005400000BF064800680028FBD07047C00F00F0CD
:10055000DFFF07C000050040006C004000010040C4
:1005600010B5002207211046FFF770FF0F21082069
:10057000FFF788FF032211211020FFF767FF1921E1
:100580001220FFF77FFF1F211C20FFF77BFF10BD0C
:1005900008B5FFF78FFFFFF7E3FF00200B230A22C8
:1005A00009210090082000F09FF800F05DF802217A
:1005B0000846FFF7D1FE24E0FF202D3000F028F898
:1005C0001420104949680122824051400D4A51606F
:1005D00000BFFF202D3000F01BF80A20FFF7E2FEDD
:1005E0000949088008460088FF21090208400012D6
:1005F000064948700448007888703120C870FFF7B9
:10060000E7FED9E7000500500600002000000020AA
:1006100001B509E00099491E009100E0401C7D21D0
:10062000C9008842FADB002000990029F2D108BDF8
:1006300010B58A0005231B07072424021B19840018
:100640001A5110BD01210522120707231B02D218DF
:100650008300D1507047000001218140014AD160E0
:10066000704700000005005004201849C860282089
:10067000886001200861164848621648886216485A
:10068000C861C04308620020C862012008630020DE
:10069000486112488861022048630846406B800721
:1006A000800F022804D10E48C8630E4888630BE00F
:1006B0000648406B8007800F012805D1FF200349C1
:1006C000C863FF20083088637047000000150040B1
:1006D000C0C1C2C3C4C5C6C799999999050504018B
:1006E000FFFF000021100100F8B507460C46154633
:1006F0001E462046FFF7A6FF00213046FFF798FF71
:100700001048C4604661069800280DD03846FFF7AF
:1007100099FF00212846FFF78BFF0A480561876093
:10072000012008494031C862074806494862042050
:10073000086001200549886008600020044988603D
:10074000F8BD00000025004000E0D7010020004077
:100750000021004074070000000000200C00000091
:1007600004010000800700000C000020641000005D
:1007700020010000515344465200000000000000D8
:04000005000000C136
:00000001FF
