:020000040000FA
:100000006810002065010000690100006B0100001C
:1000100000000000000000000000000000000000E0
:100020000000000000000000000000006D01000062
:1000300000000000000000006F01000071010000DE
:1000400073010000730100007301000073010000E0
:100050007301000000000000730100007301000044
:1000600073010000730100007301000073010000C0
:1000700073010000730100007301000073010000B0
:1000800073010000730100007301000073010000A0
:100090007301000073010000730100007301000090
:1000A0007301000073010000000000000000000068
:1000B0000000000000000000000000000000000040
:1000C00000F002F800F03EF80CA030C80838241800
:1000D0002D18A246671EAB4654465D46AC4201D180
:1000E00000F030F87E460F3E0FCCB6460126334274
:1000F00000D0FB1AA246AB46334318471804000051
:1001000038040000103A02D378C878C1FAD85207F0
:1001100001D330C830C101D504680C6070470000BD
:100120000023002400250026103A01D378C1FBD813
:10013000520700D330C100D50B6070471FB51FBDFB
:1001400010B510BD00F029F81146FFF7F7FF00F0D9
:10015000F5F800F041F803B4FFF7F2FF03BC00F03C
:1001600045F8000006480047FEE7FEE7FEE7FEE729
:10017000FEE7FEE703480449044A054B70470000C8
:10018000C1000000680000206810002068080020FE
:1001900068080020704770477047754600F022F8E5
:1001A000AE46050069465346C008C000854618B0F3
:1001B00020B5FFF7DFFF60BC00274908B6460026E0
:1001C000C0C5C0C5C0C5C0C5C0C5C0C5C0C5C0C507
:1001D000403D49008D4670470446C046C046204613
:1001E000FFF7B9FF004870470400002001491820BC
:1001F000ABBEFEE7260002007047F0B50C1A641C87
:10020000E3B210E0940001256D022C4303252D0478
:1002100065190524240707263602A6190446471C3B
:10022000F8B2A40035511C465D1EEBB2002CE9D19A
:10023000F0BD70B50B1A5B1CDAB20BE0FF2504357C
:1002400005231B07072424021E190346441CE0B2A1
:100250009B00F5501346541EE2B2002BEED170BD48
:100260002548008CC0B201283AD12348808C000771
:10027000000F002834D12048806AF021084000286F
:100280000BD11D48C06A0840002806D11B481C49F4
:100290004860C8131B49886122E01748806AF02132
:1002A000084010280BD11448C06A0840002806D125
:1002B000124813494860C8131249886110E00E487B
:1002C000806AF021084030280AD10B48C06A0840F3
:1002D000002805D109480A494860C81309498861BE
:1002E00000200949086001208107086000BF064816
:1002F00000680028FBD07047C00F00F0DFFF07C088
:1003000000050040006C00400001004010B51621BF
:100310001320FFF78EFF0F210020FFF78AFF032233
:1003200011211020FFF769FF19211220FFF781FF2B
:100330001F211C20FFF77DFF10BD0000FFF790FF7D
:10034000FFF7E4FF00F01EF804480549486003E0A9
:1003500000F058F800F0A4F8FAE7000000000020D0
:100360000015004001218140014AD1607047000022
:100370000005005001218140014A91607047000052
:100380000005005004201849C8602820886001201A
:10039000086116484862164888621648C861C0431A
:1003A00008620020C86201200863002048611248EA
:1003B0008861022048630846406B8007800F02284E
:1003C00004D10E48C8630E4888630BE00648406BB2
:1003D0008007800F012805D1FF200349C863FF2053
:1003E000083088637047000000150040C0C1C2C3D8
:1003F000C4C5C6C79999999903030401FFFF00007A
:100400002110010010B50020214908600120214978
:10041000486000BF1E4800680028FBD000201C492F
:10042000C86001201B49886002E01620FFF79AFF90
:100430001748C0680028F8D017480068012819D16B
:100440001648007851280ED11448C078522806D199
:100450001620FFF78FFF1320FFF784FF0AE000202C
:100460000B49086110BD1320FFF784FF00200849E5
:100470000861F7E700200649086101200549086185
:1004800000BF034800690028FBD000BFEAE7000076
:100490000011004000100040001400400000002047
:1004A00010B55A20184908705820C8700020174904
:1004B000086001201649086000BF14480068002841
:1004C000FBD00E20FFF756FF00201049C860012026
:1004D0000F49886002E00C20FFF744FF0B48C0681A
:1004E0000028F8D00C20FFF745FF002007490861DD
:1004F00001200749086100BF044800690028FBD0BB
:100500000E20FFF72FFF10BD00000020001100405B
:10051000001000403405000000000020040000002E
:1005200004010000380500000400002064100000F1
:080530002001000000000000A2
:04000005000000C136
:00000001FF
