:020000040000FA
:100000006810002065010000690100006B0100001C
:1000100000000000000000000000000000000000E0
:100020000000000000000000000000006D01000062
:1000300000000000000000006F01000071010000DE
:1000400073010000730100007301000073010000E0
:100050007301000000000000730100007301000044
:1000600073010000730100007301000073010000C0
:1000700073010000730100007301000073010000B0
:1000800073010000730100007301000073010000A0
:100090007301000073010000730100007301000090
:1000A0007301000073010000000000000000000068
:1000B0000000000000000000000000000000000040
:1000C00000F002F800F03EF80CA030C80838241800
:1000D0002D18A246671EAB4654465D46AC4201D180
:1000E00000F030F87E460F3E0FCCB6460126334274
:1000F00000D0FB1AA246AB4633431847600300000A
:1001000080030000103A02D378C878C1FAD85207A9
:1001100001D330C830C101D504680C6070470000BD
:100120000023002400250026103A01D378C1FBD813
:10013000520700D330C100D50B6070471FB51FBDFB
:1001400010B510BD00F029F81146FFF7F7FF00F0D9
:10015000CBF800F041F803B4FFF7F2FF03BC00F066
:1001600045F8000006480047FEE7FEE7FEE7FEE729
:10017000FEE7FEE703480449044A054B70470000C8
:10018000C1000000680000206810002068080020FE
:1001900068080020704770477047754600F022F8E5
:1001A000AE46050069465346C008C000854618B0F3
:1001B00020B5FFF7DFFF60BC00274908B6460026E0
:1001C000C0C5C0C5C0C5C0C5C0C5C0C5C0C5C0C507
:1001D000403D49008D4670470446C046C046204613
:1001E000FFF7B9FF004870470400002001491820BC
:1001F000ABBEFEE726000200704770B50B1A5B1C11
:10020000DAB20BE0FF25043505231B07072424027F
:100210001E190346441CE0B29B00F5501346541EC1
:10022000E2B2002BEED170BD2548008CC0B201288F
:100230003AD12348808C0007000F002834D1204891
:10024000806AF021084000280BD11D48C06A084090
:10025000002806D11B481C494860C8131B49886107
:1002600022E01748806AF021084010280BD114487A
:10027000C06A0840002806D1124813494860C813D4
:100280001249886110E00E48806AF0210840302849
:100290000AD10B48C06A0840002805D109480A491C
:1002A0004860C81309498861002009490860012095
:1002B0008107086000BF064800680028FBD070472F
:1002C000C00F00F0DFFF07C000050040006C0040D9
:1002D0000001004010B516211320FFF78EFF072103
:1002E0000020FFF78AFF10BDFFF79EFFFFF7F2FF28
:1002F00000F028F8142000F01DF8152000F01AF87E
:10030000162000F017F807480749486009E000F098
:1003100059F801200549086100BF05480069002817
:10032000FBD0F4E700000020001500400010004062
:100330000011004001218140014A91607047000096
:100340000005005004201849C8602820886001205A
:10035000086116484862164888621648C861C0435A
:1003600008620020C862012008630020486112482A
:100370008861022048630846406B8007800F02288E
:1003800004D10E48C8630E4888630BE00648406BF2
:100390008007800F012805D1FF200349C863FF2093
:1003A000083088637047000000150040C0C1C2C318
:1003B000C4C5C6C79999999903030401FFFF0000BA
:1003C0002110010010B500201F49086001201F49BD
:1003D000486000BF1C4800680028FBD000201A4974
:1003E000C86001201949886002E01620FFF7A2FFCB
:1003F0001548C0680028F8D01548006801281DD1AC
:1004000014480078512815D11248807843280DD11E
:100410000021104A5078104A505400BF00BF1620E7
:1004200001218140121FD16000BF07E00020064972
:10043000086110BD002004490861FAE70020024964
:10044000086100BFF5E70000001100400010004007
:100450000014004000000020040500507C0400004F
:1004600000000020040000000401000080040000DF
:1004700004000020641000002001000000000000C3
:04000005000000C136
:00000001FF
