:020000040000FA
:1000000008080020D5000000D9000000DB00000037
:1000100000000000000000000000000000000000E0
:10002000000000000000000000000000DD000000F3
:100030000000000000000000DF000000E100000000
:10004000E3000000E3000000E3000000E300000024
:10005000E300000000000000E3000000E3000000F7
:10006000E3000000E3000000E3000000E300000004
:10007000E3000000E3000000E3000000E3000000F4
:10008000E3000000E3000000E3000000E3000000E4
:10009000E3000000E3000000E3000000E3000000D4
:1000A000E3000000E300000000000000000000008A
:1000B0000000000000000000000000000000000040
:1000C0000348854600F010F800480047650200002C
:1000D0000808002003480047FEE7FEE7FEE7FEE7CA
:1000E000FEE7FEE7C1000000064C0125064E05E0D4
:1000F000E36807CC2B430C3C98471034B442F7D349
:10010000FFF7E2FFC8030000E803000002E008C8B0
:10011000121F08C1002AFAD170477047002001E081
:1001200001C1121F002AFBD17047F0B50C1A641CE4
:10013000E3B210E0940001256D022C4303252D0449
:1001400065190524240707263602A6190446471C0C
:10015000F8B2A40035511C465D1EEBB2002CE9D16B
:10016000F0BD70B50B1A5B1CDAB20BE0FF2504354D
:1001700005231B07072424021E190346441CE0B272
:100180009B00F5501346541EE2B2002BEED170BD19
:100190002548008CC0B201283AD12348808C000742
:1001A000000F002834D12048806AF0210840002840
:1001B0000BD11D48C06A0840002806D11B481C49C5
:1001C0004860C8131B49886122E01748806AF02103
:1001D000084010280BD11448C06A0840002806D1F6
:1001E000124813494860C8131249886110E00E484C
:1001F000806AF021084030280AD10B48C06A0840C4
:10020000002805D109480A494860C813094988618E
:1002100000200949086001208107086000BF0648E6
:1002200000680028FBD07047C00F00F0DFFF07C058
:1002300000050040006C00400001004010B50F2197
:100240000020FFF78EFF032211211020FFF76DFF22
:1002500019211220FFF785FF1F211C20FFF781FFC6
:1002600010BD0000234800F051F8FFF791FFFFF7A1
:10027000E5FF00F063F82048204948600120800530
:100280001F49886034E0122000F050F800201D491A
:10029000086001201C49086000BF1A480068002857
:1002A000FBD000201749C86001201749886002E090
:1002B000122000F03BF81348C0680028F8D0002155
:1002C0000D4A50780E4A121D505400BF00BF122034
:1002D00001218140121F916000BF0020094908617F
:1002E00001200949086100BF064800690028FBD0C9
:1002F000C9E70000204E000000000020001500406B
:1003000000050050001100400010004001B509E058
:100310000099491E009100E0401C7D21C9008842DF
:10032000FADB002000990029F2D108BD01218140AB
:10033000014AD160704700000005005010B5002050
:100340001949C86007208860012008611748486281
:10035000174888621748C861174808620020C862B9
:100360000120086300204861144888610220486326
:100370000846406B8007800F022804D11048C863EC
:10038000104888630BE00848406B8007800F012805
:1003900005D1FF200449C863FF200830886303208B
:1003A000FFF7B4FF10BD000000150040E7C2C3C452
:1003B000C8C7C6C5E7E7E7E7C2C2C200010104013A
:1003C000FFFF000021100100E803000000000020F2
:1003D000040000000C010000EC03000004000020F9
:0C03E000040800001C01000057495600F2
:04000005000000C136
:00000001FF
