:020000040000FA
:100000007010002065010000690100006B01000014
:1000100000000000000000000000000000000000E0
:100020000000000000000000000000006D01000062
:1000300000000000000000006F01000071010000DE
:1000400073010000730100007301000073010000E0
:100050007301000000000000730100007301000044
:1000600073010000730100007301000073010000C0
:1000700073010000730100007301000073010000B0
:1000800073010000730100007301000073010000A0
:100090007301000073010000730100007301000090
:1000A0007301000073010000000000000000000068
:1000B0000000000000000000000000000000000040
:1000C00000F002F800F03EF80CA030C80838241800
:1000D0002D18A246671EAB4654465D46AC4201D180
:1000E00000F030F87E460F3E0FCCB6460126334274
:1000F00000D0FB1AA246AB4633431847DC0400008D
:10010000FC040000103A02D378C878C1FAD852072C
:1001100001D330C830C101D504680C6070470000BD
:100120000023002400250026103A01D378C1FBD813
:10013000520700D330C100D50B6070471FB51FBDFB
:1001400010B510BD00F029F81146FFF7F7FF00F0D9
:100150002FF900F041F803B4FFF7F2FF03BC00F001
:1001600045F8000006480047FEE7FEE7FEE7FEE729
:10017000FEE7FEE703480449044A054B70470000C8
:10018000C1000000700000207010002070080020E6
:1001900070080020704770477047754600F022F8DD
:1001A000AE46050069465346C008C000854618B0F3
:1001B00020B5FFF7DFFF60BC00274908B6460026E0
:1001C000C0C5C0C5C0C5C0C5C0C5C0C5C0C5C0C507
:1001D000403D49008D4670470446C046C046204613
:1001E000FFF7B9FF004870470C00002001491820B4
:1001F000ABBEFEE7260002007047000000200B495E
:1002000008700DE00A4909480078401C085C09495B
:10021000064A1278885405480078401C0349087043
:10022000024800780328EDDB70470000080000203A
:10023000000000200500002010B500201C490860C7
:1002400001201C49486000BF194800680028FBD005
:1002500000201749C86001201649886000BF144873
:10026000C0680028FBD014480068012813D1134847
:10027000007851280BD111480079522803D115205C
:1002800000F004F907E000200949086110BD0020D2
:1002900007490861FAE7002005490861012005497E
:1002A000086100BF024800690028FBD000BFEDE7ED
:1002B0000011004000100040001400400000002029
:1002C00070B50B1A5B1CDAB20BE0FF250435052371
:1002D0001B07072424021E190346441CE0B29B009E
:1002E000F5501346541EE2B2002BEED170BD000053
:1002F0002548008CC0B201283AD12348808C0007E1
:10030000000F002834D12048806AF02108400028DE
:100310000BD11D48C06A0840002806D11B481C4963
:100320004860C8131B49886122E01748806AF021A1
:10033000084010280BD11448C06A0840002806D194
:10034000124813494860C8131249886110E00E48EA
:10035000806AF021084030280AD10B48C06A084062
:10036000002805D109480A494860C813094988612D
:1003700000200949086001208107086000BF064885
:1003800000680028FBD07047C00F00F0DFFF07C0F7
:1003900000050040006C00400001004010B516212F
:1003A0001320FFF78DFF07210020FFF789FF10BD05
:1003B00008B5FFF79DFFFFF7F1FF00F06FF81A484F
:1003C0001A49486001200B230A22092100900820C5
:1003D00000F0A4F800F0E8F825E0132000F056F84B
:1003E000FF202D3000F026F8FFF726FF142000F044
:1003F0004DF8FFF703FF0E49087800F0C5F80C49E7
:10040000487800F0C1F80A49887800F0BDF8132058
:1004100000F034F8FF202D3000F00CF800F0C4F8A4
:10042000152000F02BF8D8E7000000200015004050
:100430000500002001B509E00099491E009100E087
:10044000401C7D21C9008842FADB00200099002968
:10045000F2D108BD10B58A0005231B07072424022A
:100460001B1984001A5110BD012105221207072310
:100470001B02D2188300D150704700000121814037
:10048000014AD16070470000000500500121814001
:10049000014A91607047000000050050042018498F
:1004A000C860282088600120086116484862164804
:1004B00088621648C861C04308620020C8620120F3
:1004C000086300204861124888610220486308469A
:1004D000406B8007800F022804D10E48C8630E4885
:1004E00088630BE00648406B8007800F012805D128
:1004F000FF200349C863FF2008308863704700006D
:1005000000150040C0C1C2C3C4C5C6C79999999916
:1005100005050401FFFF000021100100F8B50746A2
:100520000C4615461E462046FFF79EFF002130462A
:10053000FFF790FF1048C4604661069800280DD070
:100540003846FFF791FF00212846FFF783FF0A484E
:1005500005618760012008494031C86207480649A3
:100560004862042008600120054988600860002076
:1005700004498860F8BD00000025004000E0D70174
:1005800000200040002100400549C86100BF054926
:10059000C9690129FBD10021024AD16170470000DD
:1005A000002500400021004000200949087009E0B2
:1005B00000200849064A1278885405480078401CF3
:1005C00003490870024800780328F1DB70470000F7
:1005D0000800002005000020F805000000000020B1
:1005E0000C00000004010000040600000C000020C4
:1005F0006410000020010000000000000000000066
:0406000000000000F6
:04000005000000C136
:00000001FF
